{
  "address": "0x116A4C3A659B0FF04dE01760f27D8f38C60Af8Aa",
  "abi": [
    {
      "inputs": [],
      "stateMutability": "nonpayable",
      "type": "constructor"
    },
    {
      "anonymous": false,
      "inputs": [
        {
          "indexed": true,
          "internalType": "address",
          "name": "owner",
          "type": "address"
        },
        {
          "indexed": true,
          "internalType": "address",
          "name": "approved",
          "type": "address"
        },
        {
          "indexed": true,
          "internalType": "uint256",
          "name": "tokenId",
          "type": "uint256"
        }
      ],
      "name": "Approval",
      "type": "event"
    },
    {
      "anonymous": false,
      "inputs": [
        {
          "indexed": true,
          "internalType": "address",
          "name": "owner",
          "type": "address"
        },
        {
          "indexed": true,
          "internalType": "address",
          "name": "operator",
          "type": "address"
        },
        {
          "indexed": false,
          "internalType": "bool",
          "name": "approved",
          "type": "bool"
        }
      ],
      "name": "ApprovalForAll",
      "type": "event"
    },
    {
      "anonymous": false,
      "inputs": [
        {
          "indexed": true,
          "internalType": "uint256",
          "name": "tokenId",
          "type": "uint256"
        },
        {
          "indexed": false,
          "internalType": "string",
          "name": "tokenURI",
          "type": "string"
        }
      ],
      "name": "CreatedSVGNFT",
      "type": "event"
    },
    {
      "anonymous": false,
      "inputs": [
        {
          "indexed": true,
          "internalType": "address",
          "name": "previousOwner",
          "type": "address"
        },
        {
          "indexed": true,
          "internalType": "address",
          "name": "newOwner",
          "type": "address"
        }
      ],
      "name": "OwnershipTransferred",
      "type": "event"
    },
    {
      "anonymous": false,
      "inputs": [
        {
          "indexed": true,
          "internalType": "address",
          "name": "from",
          "type": "address"
        },
        {
          "indexed": true,
          "internalType": "address",
          "name": "to",
          "type": "address"
        },
        {
          "indexed": true,
          "internalType": "uint256",
          "name": "tokenId",
          "type": "uint256"
        }
      ],
      "name": "Transfer",
      "type": "event"
    },
    {
      "inputs": [
        {
          "internalType": "address",
          "name": "to",
          "type": "address"
        },
        {
          "internalType": "uint256",
          "name": "tokenId",
          "type": "uint256"
        }
      ],
      "name": "approve",
      "outputs": [],
      "stateMutability": "nonpayable",
      "type": "function"
    },
    {
      "inputs": [
        {
          "internalType": "address",
          "name": "owner",
          "type": "address"
        }
      ],
      "name": "balanceOf",
      "outputs": [
        {
          "internalType": "uint256",
          "name": "",
          "type": "uint256"
        }
      ],
      "stateMutability": "view",
      "type": "function"
    },
    {
      "inputs": [
        {
          "internalType": "string",
          "name": "svg",
          "type": "string"
        }
      ],
      "name": "create",
      "outputs": [],
      "stateMutability": "nonpayable",
      "type": "function"
    },
    {
      "inputs": [
        {
          "internalType": "string",
          "name": "imageURI",
          "type": "string"
        }
      ],
      "name": "formatTokenURI",
      "outputs": [
        {
          "internalType": "string",
          "name": "",
          "type": "string"
        }
      ],
      "stateMutability": "pure",
      "type": "function"
    },
    {
      "inputs": [
        {
          "internalType": "uint256",
          "name": "tokenId",
          "type": "uint256"
        }
      ],
      "name": "getApproved",
      "outputs": [
        {
          "internalType": "address",
          "name": "",
          "type": "address"
        }
      ],
      "stateMutability": "view",
      "type": "function"
    },
    {
      "inputs": [
        {
          "internalType": "address",
          "name": "owner",
          "type": "address"
        },
        {
          "internalType": "address",
          "name": "operator",
          "type": "address"
        }
      ],
      "name": "isApprovedForAll",
      "outputs": [
        {
          "internalType": "bool",
          "name": "",
          "type": "bool"
        }
      ],
      "stateMutability": "view",
      "type": "function"
    },
    {
      "inputs": [],
      "name": "name",
      "outputs": [
        {
          "internalType": "string",
          "name": "",
          "type": "string"
        }
      ],
      "stateMutability": "view",
      "type": "function"
    },
    {
      "inputs": [],
      "name": "owner",
      "outputs": [
        {
          "internalType": "address",
          "name": "",
          "type": "address"
        }
      ],
      "stateMutability": "view",
      "type": "function"
    },
    {
      "inputs": [
        {
          "internalType": "uint256",
          "name": "tokenId",
          "type": "uint256"
        }
      ],
      "name": "ownerOf",
      "outputs": [
        {
          "internalType": "address",
          "name": "",
          "type": "address"
        }
      ],
      "stateMutability": "view",
      "type": "function"
    },
    {
      "inputs": [],
      "name": "renounceOwnership",
      "outputs": [],
      "stateMutability": "nonpayable",
      "type": "function"
    },
    {
      "inputs": [
        {
          "internalType": "address",
          "name": "from",
          "type": "address"
        },
        {
          "internalType": "address",
          "name": "to",
          "type": "address"
        },
        {
          "internalType": "uint256",
          "name": "tokenId",
          "type": "uint256"
        }
      ],
      "name": "safeTransferFrom",
      "outputs": [],
      "stateMutability": "nonpayable",
      "type": "function"
    },
    {
      "inputs": [
        {
          "internalType": "address",
          "name": "from",
          "type": "address"
        },
        {
          "internalType": "address",
          "name": "to",
          "type": "address"
        },
        {
          "internalType": "uint256",
          "name": "tokenId",
          "type": "uint256"
        },
        {
          "internalType": "bytes",
          "name": "_data",
          "type": "bytes"
        }
      ],
      "name": "safeTransferFrom",
      "outputs": [],
      "stateMutability": "nonpayable",
      "type": "function"
    },
    {
      "inputs": [
        {
          "internalType": "address",
          "name": "operator",
          "type": "address"
        },
        {
          "internalType": "bool",
          "name": "approved",
          "type": "bool"
        }
      ],
      "name": "setApprovalForAll",
      "outputs": [],
      "stateMutability": "nonpayable",
      "type": "function"
    },
    {
      "inputs": [
        {
          "internalType": "bytes4",
          "name": "interfaceId",
          "type": "bytes4"
        }
      ],
      "name": "supportsInterface",
      "outputs": [
        {
          "internalType": "bool",
          "name": "",
          "type": "bool"
        }
      ],
      "stateMutability": "view",
      "type": "function"
    },
    {
      "inputs": [
        {
          "internalType": "string",
          "name": "svg",
          "type": "string"
        }
      ],
      "name": "svgToImageURI",
      "outputs": [
        {
          "internalType": "string",
          "name": "",
          "type": "string"
        }
      ],
      "stateMutability": "pure",
      "type": "function"
    },
    {
      "inputs": [],
      "name": "symbol",
      "outputs": [
        {
          "internalType": "string",
          "name": "",
          "type": "string"
        }
      ],
      "stateMutability": "view",
      "type": "function"
    },
    {
      "inputs": [],
      "name": "tokenCounter",
      "outputs": [
        {
          "internalType": "uint256",
          "name": "",
          "type": "uint256"
        }
      ],
      "stateMutability": "view",
      "type": "function"
    },
    {
      "inputs": [
        {
          "internalType": "uint256",
          "name": "tokenId",
          "type": "uint256"
        }
      ],
      "name": "tokenURI",
      "outputs": [
        {
          "internalType": "string",
          "name": "",
          "type": "string"
        }
      ],
      "stateMutability": "view",
      "type": "function"
    },
    {
      "inputs": [
        {
          "internalType": "address",
          "name": "from",
          "type": "address"
        },
        {
          "internalType": "address",
          "name": "to",
          "type": "address"
        },
        {
          "internalType": "uint256",
          "name": "tokenId",
          "type": "uint256"
        }
      ],
      "name": "transferFrom",
      "outputs": [],
      "stateMutability": "nonpayable",
      "type": "function"
    },
    {
      "inputs": [
        {
          "internalType": "address",
          "name": "newOwner",
          "type": "address"
        }
      ],
      "name": "transferOwnership",
      "outputs": [],
      "stateMutability": "nonpayable",
      "type": "function"
    }
  ],
  "transactionHash": "0x36e307041dde01838364b770166cd501ce4b7f3807bac139979df0ff1b21070c",
  "args": [],
  "solcInputHash": "1d171a3c19ff2e7ce2c0662c735ddf36",
  "bytecode": "0x60806040523480156200001157600080fd5b50604080518082018252600781526614d591c813919560ca1b6020808301918252835180850190945260068452651cdd99d3919560d21b9084015281519192916200005f91600091620000f3565b50805162000075906001906020840190620000f3565b505050620000926200008c6200009d60201b60201c565b620000a1565b6000600855620001d6565b3390565b600780546001600160a01b038381166001600160a01b0319831681179093556040519116919082907f8be0079c531659141344cd1fd0a4f28419497f9722a3daafe3b4186f6b6457e090600090a35050565b828054620001019062000199565b90600052602060002090601f01602090048101928262000125576000855562000170565b82601f106200014057805160ff191683800117855562000170565b8280016001018555821562000170579182015b828111156200017057825182559160200191906001019062000153565b506200017e92915062000182565b5090565b5b808211156200017e576000815560010162000183565b600281046001821680620001ae57607f821691505b60208210811415620001d057634e487b7160e01b600052602260045260246000fd5b50919050565b611dfc80620001e66000396000f3fe608060405234801561001057600080fd5b506004361061012c5760003560e01c806371aee193116100ad578063b88d4fde11610071578063b88d4fde14610261578063c87b56dd14610274578063d082e38114610287578063e985e9c51461028f578063f2fde38b146102a25761012c565b806371aee193146102185780638da5cb5b1461022b57806395d89b4114610233578063a22cb4651461023b578063b6a46b3b1461024e5761012c565b806330d871c6116100f457806330d871c6146101b757806342842e0e146101ca5780636352211e146101dd57806370a08231146101f0578063715018a6146102105761012c565b806301ffc9a71461013157806306fdde031461015a578063081812fc1461016f578063095ea7b31461018f57806323b872dd146101a4575b600080fd5b61014461013f3660046114c1565b6102b5565b604051610151919061170a565b60405180910390f35b6101626102fd565b6040516101519190611715565b61018261017d36600461153f565b61038f565b60405161015191906116b9565b6101a261019d366004611498565b6103db565b005b6101a26101b23660046113aa565b610473565b6101626101c53660046114f9565b6104ab565b6101a26101d83660046113aa565b61053e565b6101826101eb36600461153f565b610559565b6102036101fe36600461135e565b61058e565b6040516101519190611c2d565b6101a26105d2565b6101626102263660046114f9565b61061d565b610182610659565b610162610668565b6101a261024936600461145e565b610677565b6101a261025c3660046114f9565b61068d565b6101a261026f3660046113e5565b610709565b61016261028236600461153f565b610748565b610203610869565b61014461029d366004611378565b61086f565b6101a26102b036600461135e565b61089d565b60006001600160e01b031982166380ac58cd60e01b14806102e657506001600160e01b03198216635b5e139f60e01b145b806102f557506102f58261090e565b90505b919050565b60606000805461030c90611cc4565b80601f016020809104026020016040519081016040528092919081815260200182805461033890611cc4565b80156103855780601f1061035a57610100808354040283529160200191610385565b820191906000526020600020905b81548152906001019060200180831161036857829003601f168201915b5050505050905090565b600061039a82610927565b6103bf5760405162461bcd60e51b81526004016103b690611a82565b60405180910390fd5b506000908152600460205260409020546001600160a01b031690565b60006103e682610559565b9050806001600160a01b0316836001600160a01b0316141561041a5760405162461bcd60e51b81526004016103b690611b9b565b806001600160a01b031661042c610944565b6001600160a01b0316148061044857506104488161029d610944565b6104645760405162461bcd60e51b81526004016103b6906118be565b61046e8383610948565b505050565b61048461047e610944565b826109b6565b6104a05760405162461bcd60e51b81526004016103b690611bdc565b61046e838383610a33565b606060006040518060400160405280601a81526020017f646174613a696d6167652f7376672b786d6c3b6261736536342c00000000000081525090506000610511846040516020016104fd9190611583565b604051602081830303815290604052610b60565b9050818160405160200161052692919061159f565b60405160208183030381529060405292505050919050565b61046e83838360405180602001604052806000815250610709565b6000818152600260205260408120546001600160a01b0316806102f55760405162461bcd60e51b81526004016103b690611965565b60006001600160a01b0382166105b65760405162461bcd60e51b81526004016103b69061191b565b506001600160a01b031660009081526003602052604090205490565b6105da610944565b6001600160a01b03166105eb610659565b6001600160a01b0316146106115760405162461bcd60e51b81526004016103b690611ace565b61061b6000610cd5565b565b6060610633826040516020016104fd91906115ce565b6040516020016106439190611674565b6040516020818303038152906040529050919050565b6007546001600160a01b031690565b60606001805461030c90611cc4565b610689610682610944565b8383610d27565b5050565b61069933600854610dca565b60006106a4826104ab565b90506106ba6008546106b58361061d565b610de4565b6008546106c8906001611c36565b60088190556040517ff5acc616aa8ecd00e5d76674d7812f9c3c3571d662c9fba4499deefa6d0be12d906106fd908590611715565b60405180910390a25050565b61071a610714610944565b836109b6565b6107365760405162461bcd60e51b81526004016103b690611bdc565b61074284848484610e28565b50505050565b606061075382610927565b61076f5760405162461bcd60e51b81526004016103b690611a31565b6000828152600660205260408120805461078890611cc4565b80601f01602080910402602001604051908101604052809291908181526020018280546107b490611cc4565b80156108015780601f106107d657610100808354040283529160200191610801565b820191906000526020600020905b8154815290600101906020018083116107e457829003601f168201915b505050505090506000610812610e5b565b9050805160001415610826575090506102f8565b81511561085857808260405160200161084092919061159f565b604051602081830303815290604052925050506102f8565b61086184610e6d565b949350505050565b60085481565b6001600160a01b03918216600090815260056020908152604080832093909416825291909152205460ff1690565b6108a5610944565b6001600160a01b03166108b6610659565b6001600160a01b0316146108dc5760405162461bcd60e51b81526004016103b690611ace565b6001600160a01b0381166109025760405162461bcd60e51b81526004016103b69061177a565b61090b81610cd5565b50565b6001600160e01b031981166301ffc9a760e01b14919050565b6000908152600260205260409020546001600160a01b0316151590565b3390565b600081815260046020526040902080546001600160a01b0319166001600160a01b038416908117909155819061097d82610559565b6001600160a01b03167f8c5be1e5ebec7d5bd14f71427d1e84f3dd0314c0f7b2291e5b200ac8c7c3b92560405160405180910390a45050565b60006109c182610927565b6109dd5760405162461bcd60e51b81526004016103b690611872565b60006109e883610559565b9050806001600160a01b0316846001600160a01b03161480610a235750836001600160a01b0316610a188461038f565b6001600160a01b0316145b806108615750610861818561086f565b826001600160a01b0316610a4682610559565b6001600160a01b031614610a6c5760405162461bcd60e51b81526004016103b690611b03565b6001600160a01b038216610a925760405162461bcd60e51b81526004016103b6906117f7565b610a9d83838361046e565b610aa8600082610948565b6001600160a01b0383166000908152600360205260408120805460019290610ad1908490611c81565b90915550506001600160a01b0382166000908152600360205260408120805460019290610aff908490611c36565b909155505060008181526002602052604080822080546001600160a01b0319166001600160a01b0386811691821790925591518493918716917fddf252ad1be2c89b69c2b068fc378daa952ba7f163c4a11628f55a4df523b3ef91a4505050565b6060815160001415610b8157506040805160208101909152600081526102f8565b6000604051806060016040528060408152602001611d876040913990506000600384516002610bb09190611c36565b610bba9190611c4e565b610bc5906004611c62565b90506000610bd4826020611c36565b67ffffffffffffffff811115610bfa57634e487b7160e01b600052604160045260246000fd5b6040519080825280601f01601f191660200182016040528015610c24576020820181803683370190505b509050818152600183018586518101602084015b81831015610c90576003830192508251603f8160121c168501518253600182019150603f81600c1c168501518253600182019150603f8160061c168501518253600182019150603f8116850151825350600101610c38565b600389510660018114610caa5760028114610cbb57610cc7565b613d3d60f01b600119830152610cc7565b603d60f81b6000198301525b509398975050505050505050565b600780546001600160a01b038381166001600160a01b0319831681179093556040519116919082907f8be0079c531659141344cd1fd0a4f28419497f9722a3daafe3b4186f6b6457e090600090a35050565b816001600160a01b0316836001600160a01b03161415610d595760405162461bcd60e51b81526004016103b69061183b565b6001600160a01b0383811660008181526005602090815260408083209487168084529490915290819020805460ff1916851515179055517f17307eab39ab6107e8899845ad3d59bd9653f200f220920489ca2b5937696c3190610dbd90859061170a565b60405180910390a3505050565b610689828260405180602001604052806000815250610ef0565b610ded82610927565b610e095760405162461bcd60e51b81526004016103b6906119ae565b6000828152600660209081526040909120825161046e9284019061123e565b610e33848484610a33565b610e3f84848484610f23565b6107425760405162461bcd60e51b81526004016103b690611728565b60408051602081019091526000815290565b6060610e7882610927565b610e945760405162461bcd60e51b81526004016103b690611b4c565b6000610e9e610e5b565b90506000815111610ebe5760405180602001604052806000815250610ee9565b80610ec88461103e565b604051602001610ed992919061159f565b6040516020818303038152906040525b9392505050565b610efa8383611159565b610f076000848484610f23565b61046e5760405162461bcd60e51b81526004016103b690611728565b6000610f37846001600160a01b0316611238565b1561103357836001600160a01b031663150b7a02610f53610944565b8786866040518563ffffffff1660e01b8152600401610f7594939291906116cd565b602060405180830381600087803b158015610f8f57600080fd5b505af1925050508015610fbf575060408051601f3d908101601f19168201909252610fbc918101906114dd565b60015b611019573d808015610fed576040519150601f19603f3d011682016040523d82523d6000602084013e610ff2565b606091505b5080516110115760405162461bcd60e51b81526004016103b690611728565b805181602001fd5b6001600160e01b031916630a85bd0160e11b149050610861565b506001949350505050565b60608161106357506040805180820190915260018152600360fc1b60208201526102f8565b8160005b811561108d578061107781611cff565b91506110869050600a83611c4e565b9150611067565b60008167ffffffffffffffff8111156110b657634e487b7160e01b600052604160045260246000fd5b6040519080825280601f01601f1916602001820160405280156110e0576020820181803683370190505b5090505b8415610861576110f5600183611c81565b9150611102600a86611d1a565b61110d906030611c36565b60f81b81838151811061113057634e487b7160e01b600052603260045260246000fd5b60200101906001600160f81b031916908160001a905350611152600a86611c4e565b94506110e4565b6001600160a01b03821661117f5760405162461bcd60e51b81526004016103b6906119fc565b61118881610927565b156111a55760405162461bcd60e51b81526004016103b6906117c0565b6111b16000838361046e565b6001600160a01b03821660009081526003602052604081208054600192906111da908490611c36565b909155505060008181526002602052604080822080546001600160a01b0319166001600160a01b03861690811790915590518392907fddf252ad1be2c89b69c2b068fc378daa952ba7f163c4a11628f55a4df523b3ef908290a45050565b3b151590565b82805461124a90611cc4565b90600052602060002090601f01602090048101928261126c57600085556112b2565b82601f1061128557805160ff19168380011785556112b2565b828001600101855582156112b2579182015b828111156112b2578251825591602001919060010190611297565b506112be9291506112c2565b5090565b5b808211156112be57600081556001016112c3565b600067ffffffffffffffff808411156112f2576112f2611d5a565b604051601f8501601f19168101602001828111828210171561131657611316611d5a565b60405284815291508183850186101561132e57600080fd5b8484602083013760006020868301015250509392505050565b80356001600160a01b03811681146102f857600080fd5b60006020828403121561136f578081fd5b610ee982611347565b6000806040838503121561138a578081fd5b61139383611347565b91506113a160208401611347565b90509250929050565b6000806000606084860312156113be578081fd5b6113c784611347565b92506113d560208501611347565b9150604084013590509250925092565b600080600080608085870312156113fa578081fd5b61140385611347565b935061141160208601611347565b925060408501359150606085013567ffffffffffffffff811115611433578182fd5b8501601f81018713611443578182fd5b611452878235602084016112d7565b91505092959194509250565b60008060408385031215611470578182fd5b61147983611347565b91506020830135801515811461148d578182fd5b809150509250929050565b600080604083850312156114aa578182fd5b6114b383611347565b946020939093013593505050565b6000602082840312156114d2578081fd5b8135610ee981611d70565b6000602082840312156114ee578081fd5b8151610ee981611d70565b60006020828403121561150a578081fd5b813567ffffffffffffffff811115611520578182fd5b8201601f81018413611530578182fd5b610861848235602084016112d7565b600060208284031215611550578081fd5b5035919050565b6000815180845261156f816020860160208601611c98565b601f01601f19169290920160200192915050565b60008251611595818460208701611c98565b9190910192915050565b600083516115b1818460208801611c98565b8351908301906115c5818360208801611c98565b01949350505050565b683d913730b6b2911d1160b91b81526614d591c813919560ca1b60098201527f222c20226465736372697074696f6e223a22416e204e4654206261736564206f60108201527f6e2053564721222c202261747472696275746573223a22222c2022696d616765603082015262111d1160e91b6050820152815160009061165b816053850160208701611c98565b61227d60f01b6053939091019283015250605501919050565b60007f646174613a6170706c69636174696f6e2f6a736f6e3b6261736536342c000000825282516116ac81601d850160208701611c98565b91909101601d0192915050565b6001600160a01b0391909116815260200190565b6001600160a01b038581168252841660208201526040810183905260806060820181905260009061170090830184611557565b9695505050505050565b901515815260200190565b600060208252610ee96020830184611557565b60208082526032908201527f4552433732313a207472616e7366657220746f206e6f6e20455243373231526560408201527131b2b4bb32b91034b6b83632b6b2b73a32b960711b606082015260800190565b60208082526026908201527f4f776e61626c653a206e6577206f776e657220697320746865207a65726f206160408201526564647265737360d01b606082015260800190565b6020808252601c908201527f4552433732313a20746f6b656e20616c7265616479206d696e74656400000000604082015260600190565b60208082526024908201527f4552433732313a207472616e7366657220746f20746865207a65726f206164646040820152637265737360e01b606082015260800190565b60208082526019908201527f4552433732313a20617070726f766520746f2063616c6c657200000000000000604082015260600190565b6020808252602c908201527f4552433732313a206f70657261746f7220717565727920666f72206e6f6e657860408201526b34b9ba32b73a103a37b5b2b760a11b606082015260800190565b60208082526038908201527f4552433732313a20617070726f76652063616c6c6572206973206e6f74206f7760408201527f6e6572206e6f7220617070726f76656420666f7220616c6c0000000000000000606082015260800190565b6020808252602a908201527f4552433732313a2062616c616e636520717565727920666f7220746865207a65604082015269726f206164647265737360b01b606082015260800190565b60208082526029908201527f4552433732313a206f776e657220717565727920666f72206e6f6e657869737460408201526832b73a103a37b5b2b760b91b606082015260800190565b6020808252602e908201527f45524337323155524953746f726167653a2055524920736574206f66206e6f6e60408201526d32bc34b9ba32b73a103a37b5b2b760911b606082015260800190565b6020808252818101527f4552433732313a206d696e7420746f20746865207a65726f2061646472657373604082015260600190565b60208082526031908201527f45524337323155524953746f726167653a2055524920717565727920666f72206040820152703737b732bc34b9ba32b73a103a37b5b2b760791b606082015260800190565b6020808252602c908201527f4552433732313a20617070726f76656420717565727920666f72206e6f6e657860408201526b34b9ba32b73a103a37b5b2b760a11b606082015260800190565b6020808252818101527f4f776e61626c653a2063616c6c6572206973206e6f7420746865206f776e6572604082015260600190565b60208082526029908201527f4552433732313a207472616e73666572206f6620746f6b656e2074686174206960408201526839903737ba1037bbb760b91b606082015260800190565b6020808252602f908201527f4552433732314d657461646174613a2055524920717565727920666f72206e6f60408201526e3732bc34b9ba32b73a103a37b5b2b760891b606082015260800190565b60208082526021908201527f4552433732313a20617070726f76616c20746f2063757272656e74206f776e656040820152603960f91b606082015260800190565b60208082526031908201527f4552433732313a207472616e736665722063616c6c6572206973206e6f74206f6040820152701ddb995c881b9bdc88185c1c1c9bdd9959607a1b606082015260800190565b90815260200190565b60008219821115611c4957611c49611d2e565b500190565b600082611c5d57611c5d611d44565b500490565b6000816000190483118215151615611c7c57611c7c611d2e565b500290565b600082821015611c9357611c93611d2e565b500390565b60005b83811015611cb3578181015183820152602001611c9b565b838111156107425750506000910152565b600281046001821680611cd857607f821691505b60208210811415611cf957634e487b7160e01b600052602260045260246000fd5b50919050565b6000600019821415611d1357611d13611d2e565b5060010190565b600082611d2957611d29611d44565b500690565b634e487b7160e01b600052601160045260246000fd5b634e487b7160e01b600052601260045260246000fd5b634e487b7160e01b600052604160045260246000fd5b6001600160e01b03198116811461090b57600080fdfe4142434445464748494a4b4c4d4e4f505152535455565758595a6162636465666768696a6b6c6d6e6f707172737475767778797a303132333435363738392b2fa2646970667358221220471d93f93c56226c30f656aefb0c62929137c7039d93072e52b98ced302d070764736f6c63430008000033",
  "devdoc": {
    "kind": "dev",
    "methods": {
      "approve(address,uint256)": {
        "details": "See {IERC721-approve}."
      },
      "balanceOf(address)": {
        "details": "See {IERC721-balanceOf}."
      },
      "getApproved(uint256)": {
        "details": "See {IERC721-getApproved}."
      },
      "isApprovedForAll(address,address)": {
        "details": "See {IERC721-isApprovedForAll}."
      },
      "name()": {
        "details": "See {IERC721Metadata-name}."
      },
      "owner()": {
        "details": "Returns the address of the current owner."
      },
      "ownerOf(uint256)": {
        "details": "See {IERC721-ownerOf}."
      },
      "renounceOwnership()": {
        "details": "Leaves the contract without owner. It will not be possible to call `onlyOwner` functions anymore. Can only be called by the current owner. NOTE: Renouncing ownership will leave the contract without an owner, thereby removing any functionality that is only available to the owner."
      },
      "safeTransferFrom(address,address,uint256)": {
        "details": "See {IERC721-safeTransferFrom}."
      },
      "safeTransferFrom(address,address,uint256,bytes)": {
        "details": "See {IERC721-safeTransferFrom}."
      },
      "setApprovalForAll(address,bool)": {
        "details": "See {IERC721-setApprovalForAll}."
      },
      "supportsInterface(bytes4)": {
        "details": "See {IERC165-supportsInterface}."
      },
      "symbol()": {
        "details": "See {IERC721Metadata-symbol}."
      },
      "tokenURI(uint256)": {
        "details": "See {IERC721Metadata-tokenURI}."
      },
      "transferFrom(address,address,uint256)": {
        "details": "See {IERC721-transferFrom}."
      },
      "transferOwnership(address)": {
        "details": "Transfers ownership of the contract to a new account (`newOwner`). Can only be called by the current owner."
      }
    },
    "version": 1
  },
  "userdoc": {
    "kind": "user",
    "methods": {},
    "version": 1
  },
  "storageLayout": {
    "storage": [
      {
        "astId": 130,
        "contract": "contracts/manualNFT.sol:manualNFT",
        "label": "_name",
        "offset": 0,
        "slot": "0",
        "type": "t_string_storage"
      },
      {
        "astId": 132,
        "contract": "contracts/manualNFT.sol:manualNFT",
        "label": "_symbol",
        "offset": 0,
        "slot": "1",
        "type": "t_string_storage"
      },
      {
        "astId": 136,
        "contract": "contracts/manualNFT.sol:manualNFT",
        "label": "_owners",
        "offset": 0,
        "slot": "2",
        "type": "t_mapping(t_uint256,t_address)"
      },
      {
        "astId": 140,
        "contract": "contracts/manualNFT.sol:manualNFT",
        "label": "_balances",
        "offset": 0,
        "slot": "3",
        "type": "t_mapping(t_address,t_uint256)"
      },
      {
        "astId": 144,
        "contract": "contracts/manualNFT.sol:manualNFT",
        "label": "_tokenApprovals",
        "offset": 0,
        "slot": "4",
        "type": "t_mapping(t_uint256,t_address)"
      },
      {
        "astId": 150,
        "contract": "contracts/manualNFT.sol:manualNFT",
        "label": "_operatorApprovals",
        "offset": 0,
        "slot": "5",
        "type": "t_mapping(t_address,t_mapping(t_address,t_bool))"
      },
      {
        "astId": 1082,
        "contract": "contracts/manualNFT.sol:manualNFT",
        "label": "_tokenURIs",
        "offset": 0,
        "slot": "6",
        "type": "t_mapping(t_uint256,t_string_storage)"
      },
      {
        "astId": 7,
        "contract": "contracts/manualNFT.sol:manualNFT",
        "label": "_owner",
        "offset": 0,
        "slot": "7",
        "type": "t_address"
      },
      {
        "astId": 1908,
        "contract": "contracts/manualNFT.sol:manualNFT",
        "label": "tokenCounter",
        "offset": 0,
        "slot": "8",
        "type": "t_uint256"
      }
    ],
    "types": {
      "t_address": {
        "encoding": "inplace",
        "label": "address",
        "numberOfBytes": "20"
      },
      "t_bool": {
        "encoding": "inplace",
        "label": "bool",
        "numberOfBytes": "1"
      },
      "t_mapping(t_address,t_bool)": {
        "encoding": "mapping",
        "key": "t_address",
        "label": "mapping(address => bool)",
        "numberOfBytes": "32",
        "value": "t_bool"
      },
      "t_mapping(t_address,t_mapping(t_address,t_bool))": {
        "encoding": "mapping",
        "key": "t_address",
        "label": "mapping(address => mapping(address => bool))",
        "numberOfBytes": "32",
        "value": "t_mapping(t_address,t_bool)"
      },
      "t_mapping(t_address,t_uint256)": {
        "encoding": "mapping",
        "key": "t_address",
        "label": "mapping(address => uint256)",
        "numberOfBytes": "32",
        "value": "t_uint256"
      },
      "t_mapping(t_uint256,t_address)": {
        "encoding": "mapping",
        "key": "t_uint256",
        "label": "mapping(uint256 => address)",
        "numberOfBytes": "32",
        "value": "t_address"
      },
      "t_mapping(t_uint256,t_string_storage)": {
        "encoding": "mapping",
        "key": "t_uint256",
        "label": "mapping(uint256 => string)",
        "numberOfBytes": "32",
        "value": "t_string_storage"
      },
      "t_string_storage": {
        "encoding": "bytes",
        "label": "string",
        "numberOfBytes": "32"
      },
      "t_uint256": {
        "encoding": "inplace",
        "label": "uint256",
        "numberOfBytes": "32"
      }
    }
  }
}